:1000000000000420790300006103000039110000A2
:1000100065030000670300006903000000000000A2
:100020000000000000000000000000006B03000062
:100030006D030000000000006F030000710300006A
:100040009D32000073030000AD3200007303000016
:100050007303000073030000AD2B00007303000066
:1000600073030000730300007303000073030000B8
:1000700073030000730300007303000073030000A8
:1000800073030000BD0E0000730300007303000043
:10009000FD0E0000730300007303000073030000F3
:1000A0007303000073030000730300007303000078
:1000B0007303000073030000000000000000000054
:1000C0007303000073030000730300007303000058
:1000D0007303000073030000730300007303000048
:1000E000954C000073030000730300000000000043
:1000F0000000000073030000000000007303000014
:1001000000000000000000000000000000000000EF
:1001100000000000000000000000000000000000DF
:1001200000000000000000000000000000000000CF
:1001300000000000000000000000000000000000BF
:1001400000000000000000000000000000000000AF
:10015000000000000000000000000000000000009F
:10016000000000000000000000000000000000008F
:10017000000000000000000000000000000000007F
:10018000000000000000000000000000000000006F
:10019000000000000000000000000000000000005F
:1001A000000000000000000000000000000000004F
:1001B000000000000000000000000000000000003F
:1001C000000000000000000000000000000000002F
:1001D000000000000000000000000000000000001F
:1001E000000000000000000000000000000000000F
:1001F00000000000000000000000000000000000FF
:10020000364937480A1A02D0072291438D463549AC
:1002100035480A1A06D00722914381F30988022241
:1002200082F3148831483249324A00F045F83248A6
:100230003249334A00F040F832483349334A00F03B
:100240003BF833483349344A00F036F833483449F0
:10025000344A00F031F834483449354A00F02CF87B
:1002600034483549354A00F027F8354835490022E9
:1002700000F02DF834483549002200F028F83448C1
:100280003449091A082903DB0022026004300160A6
:10029000314A90471F482049884205D002680430FF
:1002A00003B4904703BCF7E700208646EC460020E5
:1002B00000212A4A9047FEE7884207D0521A05D00B
:1002C000037801300B700131013AF9D1704788424F
:1002D00002D002700130FAE77047000000000420ED
:1002E00000E0032000000420000004202C5B00003C
:1002F0000000002004000020D8030000D803000004
:10030000865300002C5B000000000020000000204D
:10031000D8530000D8530000D8530000D853000031
:10032000D8530000D8530000D8530000D853000021
:100330002A5B0000305B0000040000200400002065
:1003400004000020680B0020680B0020680B0020D0
:10035000680B0020682B0020A1030000B94C0000AE
:10036000FEE7FEE7FEE7FEE7FEE7FEE7FEE7FEE765
:10037000FEE7FEE7704700BF1048804710484FF087
:100380000701884385460F4880470F48016841F4BC
:1003900070010160BFF34F8FBFF36F8FFFF730BF66
:1003A0000A480B490B4A884207D0521A05D00378F5
:1003B00001300B700131013AF9D17047750300002B
:1003C00000000420494E000088ED00E0D8530000F2
:0803D0000000002000000020E5
:1003D80086B003900291019201238DF817309DF8A1
:1003E80017301F4A039B13601D4A029B53601C4A27
:1003F800019B9360039B44F20102934212D044F2A2
:100408000202934221D1019B154AD360144BDB6849
:100418001B881A46124B9A61114BDB685B68104ABD
:10042800D36112E0019B0E4A13610D4B1B699B6857
:100438000B4A53610A4B1B691B68094A9361084BB5
:100448001B695B68064AD36100BF72B600BF9DF89E
:100458001730DBB2002BFAD162B600BF06B0704786
:100468000400002000B583B002900091019244F28C
:10047800010071466A4600F003F803B000BD00BFF2
:1004880000B587B003900291019272B6039B44F2C3
:100498000102934207D044F20202934200D005E0E1
:1004A800019B059302E0019B049300BF074B1B6867
:1004B80003F00103002B00D000BE019A02990398B3
:1004C800FFF786FF00BF07B05DF804FBF0ED00E022
:1004D80082B003468DF807309DF8073003F01F02FD
:1004E80005499DF907305B09012000FA02F241F83D
:1004F800232000BF02B0704700E100E082B003464D
:100508008DF807309DF8073003F01F0206499DF962
:1005180007305B09012000FA02F2203341F823205A
:1005280000BF02B0704700BF00E100E082B00346A0
:100538008DF807309DF8073003F01F0206499DF932
:1005480007305B09012000FA02F2403341F823200A
:1005580000BF02B0704700BF00E100E082B0034670
:100568008DF807309DF8073003F01F0206499DF902
:1005780007305B09012000FA02F2603341F82320BA
:1005880000BF02B0704700BF00E100E082B0034640
:1005980000918DF807309DF90730002B0CDA009B8D
:1005A800DAB20C499DF8073003F00F03043B5201FF
:1005B800D2B20B441A7609E0009BDAB206499DF9DB
:1005C80007305201D2B20B4483F8002300BF02B0B7
:1005D800704700BF00ED00E000E100E000B585B025
:1005E8000190019B002B0AD0074B43F001030393B2
:1005F800019B9B010293039B0298984700E000BF70
:1006080005B05DF804FB00BFE053000000B583B0FF
:100618000190064A019BC2F8083506211120FFF710
:10062800B5FF00BF03B05DF804FB00BF0010014038
:1006380008B50D4B4FF48032C3F844230A4B4FF4EE
:100648008032C3F804231120FFF788FF1120FFF739
:100658003FFF054B01221A602F20FFF7BFFF034B16
:1006680001221A7000BF08BD00100140420100209D
:1006780008B51120FFF742FF0E4B4FF48032C3F844
:1006880048230C4B4FF48032C3F80823094B01224E
:100698005A602F20FFF7A2FF064B01229A60064BF3
:1006A80000221A602F20FFF799FF044B00221A70CE
:1006B80000BF08BD001001403401002042010020A5
:1006C800024BD3F804351846704700BF00100140AC
:1006D80082B001900091019A009BD31A23F07F43C6
:1006E800184602B07047000082B00190034A019B8F
:1006F800C2F8403500BF02B0704700BF001001408B
:1007080086B00190284B1B68002B03D1264A019B19
:10071800136045E0019B1A68234B1B681B689A42CB
:1007280010D8214B1B681968019B1A681E4B1B685F
:100738008A1A1A601C4B1A68019BDA611A4A019BD3
:1007480013602DE0019B1B680393174B1B680593EF
:10075800154B1B68049309E0049B1B68039AD31A82
:100768000393049B0593049BDB690493049B002B70
:1007780004D0049B1B68039A9A42EDD8049B002B73
:1007880005D0049B1A68039BD21A049B1A60019B2C
:10079800039A1A60019B049ADA61059B019ADA614F
:1007A80000BF06B0704700BF3001002000B587B019
:1007B80001902A4B1B680393284B1B680593059BE4
:1007C800049308E0049A019B9A4208D0049B05937D
:1007D800049BDB690493049B002BF3D100E000BF6A
:1007E800049B002B01D1002333E0059A049B9A4215
:1007F80014D11A4B1B68DB69184A1360174B1B6826
:10080800002B0BD1164B01229A60164B00221A605E
:10081800154B01221A702F20FFF7E0FE049B1B687E
:100828000293049BDA69059BDA61059BDB690493F3
:10083800049B002B05D0049B1A68029B1A44049B56
:100848001A60064B1B68039A9A4214BF01230023BF
:10085800DBB2184607B05DF804FB00BF300100208A
:1008680000100140340100204301002008B5112088
:10087800FFF75CFE00BF08BD08B51420FFF756FE61
:1008880000BF08BD00B583B00190019B5B69019A68
:1008980092691046984700BF03B05DF804FB00005A
:1008A80000B585B02B4B1B68002B4ED0002301935D
:1008B800FFF706FF0246284B1B6819461046FFF74C
:1008C80007FF0290234B1B6803931DE0039B1B68E3
:1008D800029A9A421CD3039B1B68029AD31A02936A
:1008E800039B1B68019A13440193039B0093039B8A
:1008F800DB690393009B1B7C002B05D0009B002227
:100908001A740098FFF7BEFF039B002BDED100E0AE
:1009180000BF124B1A78124B1B789A420CD1104B1D
:100928001B780133DAB20E4B1A700D4B1B78022B71
:1009380002D10B4B00221A70094B1B781946094A41
:10094800019B42F82130FFF797FF00BF05B05DF823
:1009580004FB00BF300100203401002040010020CA
:10096800410100203801002082B00190184B1A780C
:10097800184B1B789A4223D0154B1B780133DAB2F7
:10098800134B1A70124B1B78022B02D1104B00220A
:100998001A700F4B1B781A460F4B53F82220019BF5
:1009A8001A60019B1A680D4B1B6813440B4A1360AD
:1009B8000A4B1B6823F07F43084A1360012303E0B6
:1009C800019B00221A600023184602B0704700BF3E
:1009D800400100204101002038010020340100209E
:1009E80088B00390029101920023079338E0204BCE
:1009F8001B680693069B1B68039A9A4206D2069BBD
:100A08001A68039BD21A069B1A602DE0069B1B6886
:100A1800039AD31A0393069B1B68079A13440793F8
:100A2800069B00221A60124B1B680593069BDB6924
:100A38000F4A1360069BDB68002B11D0029A079BB4
:100A4800134423F07F42069B5A60069BDA68069B94
:100A58009A60019B1A68069BDA61019B059A1A60E5
:100A6800034B1B68002BC2D100BF08B0704700BF02
:100A78003001002000B589B0019000238DF81F30A7
:100A8800664B1B680593AAE0019B002B05D0019BD0
:100A98000693069BDB69019361E0614B1B781A465C
:100AA80013465B001344DB005D4A1344043304938C
:100AB8005B4B1B780133DAB2594B1A70584B1A78D2
:100AC800574B9B789A4202D1554B00221A70049BCF
:100AD8005B680693049B1B78022B04D0032B1BD066
:100AE800012B1FD01DE0049B5B681846FFF75EFED4
:100AF8000346002B02D001238DF81F30069B0022ED
:100B08001A746CE0454B1B680393039B00221A740C
:100B1800039BDB69414A1360404B1B68002BF1D1F2
:100B28005DE05CE000BF069B1B7C002B00D056E01C
:100B3800049B9A68069B5A60049BDA68069B9A6035
:100B4800049B1A69069BDA60049B5A69069B9A61A2
:100B5800344B1B78002B02D0069B00225A60069B60
:100B68005A68314B1B68D31A23F07F432F4A9342AC
:100B78000ED8069B5A682C4B1B6819461046FFF77F
:100B8800A7FD0246069B9B681A44069B1A6017E05D
:100B9800254B1A68069B5B6819461046FFF798FDB7
:100BA8000290069B9B68029A9A4206D2069B9A6814
:100BB800029BD21A069B1A6002E0069B00221A606A
:100BC800069B00225A60069B00229A60069B01221F
:100BD8001A74069B0022DA610698FFF791FD019BC3
:100BE800002B7FF451AF0E4B1A780D4B5B789A426D
:100BF8007FF44AAF9DF81F30002B04D1074B1B68C8
:100C0800059A9A4201D0012300E0002303F0010372
:100C1800DBB2184609B05DF804FB00BF30010020C4
:100C2800240000204301002034010020FEFF7F0043
:100C380010B588B00190274B1B68002B44D0254B7A
:100C48001B681B680793FFF73BFD0690224B1B6848
:100C5800059305990698FFF73BFD03460333049374
:100C68001E4B1B7883F00103DBB2002B01D0FFF78A
:100C7800DFFC049A079B934238BF1346059A134436
:100C88000593059B23F07F4305930598FFF72CFDFB
:100C9800FFF716FD039006990398FFF719FD034621
:100CA800DC1C06990598FFF713FD03469C420DD9F5
:100CB800FFF706FD03461846FFF716FD2F20FFF73E
:100CC8008DFCFFF7D3FD01E0FFF7D2FC00BF08B0B1
:100CD80010BD00BF30010020340100204201002077
:100CE80000B587B00023019300238DF81730194B06
:100CF8001B680493184B1B6803936B461846FFF751
:100D080033FE03468DF80B309DF80B30002B08D0CE
:100D1800009B01AA04991846FFF762FE01238DF88B
:100D28001730019B1846FFF7A5FE0346002B02D09B
:100D380001238DF817309DF81730002B02D0039847
:100D4800FFF776FF054B00221A7000BF07B05DF869
:100D580004FB00BF340100203001002043010020C3
:100D680082B003468DF80730034A9DF80730537068
:100D780000BF02B0704700BF2400002084B001907B
:100D8800144B5B7801338DF80F30124B9B789DF82C
:100D98000F209A4202D100238DF80F300D4B1B789B
:100DA8009DF80F209A4201D100230FE0019B9DF886
:100DB8000F201A70074B5B781A4613465B001344E2
:100DC800DB00044A134404330293029B184604B020
:100DD800704700BF2400002000B589B0039002913D
:100DE8000192009300230793002000F059F90DF1B8
:100DF80017031846FFF7C2FF0690069B002B02D187
:100E08000423079318E0069B01221A70069B039A95
:100E18005A60FFF755FC0246069B9A60069B029AA9
:100E2800DA60069B019A1A61069B009A5A619DF83E
:100E380017301846FFF794FF002000F045F9079B8C
:100E4800002B01D1FFF718FD079B184609B05DF884
:100E580004FB00B587B001900B468DF803300023E2
:100E68000593002000F01CF90DF10F031846FFF759
:100E780085FF0490049B002B02D1042305930BE00B
:100E8800049B9DF803201A70049B019A5A609DF8F0
:100E98000F301846FFF764FF002000F015F9059B96
:100EA800002B01D1FFF7E8FC059B184607B05DF859
:100EB80004FB000008B50E4B0022C3F840210C4B80
:100EC8000022C3F844210A4B0022C3F84821084BEA
:100ED8000022C3F84C21064B0022C3F80021044B22
:100EE8000022C3F80421FFF7DBFC00BF08BD00BFE8
:100EF8000010014008B5FFF7F3FE00BF08BD000071
:100F080008B5FFF7B5FB134B00221A70114B0022EE
:100F18005A70104B0B229A700F4B00221A600F4B1D
:100F280000221A700E4B00221A701420FFF716FBCD
:100F380006211420FFF72AFB1420FFF7C9FA002026
:100F4800FFF764FBFFF7BCFB0246064B1A60002361
:100F5800184608BD24000020300100204001002070
:100F6800410100203401002086B003900B46019215
:100F78008DF80B30134B9B78002B01D108231EE012
:100F8800019B002B01D1072319E0039B002B01D102
:100F9800072314E0039B1B681B7C002B01D008234C
:100FA8000DE0039B1B680593059B00221A74059BA3
:100FB8009DF80B205A74059B019A5A610023184624
:100FC80006B070472400002000B587B00390029156
:100FD8000192039B0593144B9B78002B01D10823A6
:100FE8001EE0039B002B01D1082319E0029B042B70
:100FF80001D8072314E0059B5B69002B01D1082366
:101008000EE0059B5B7C012B01D1029B00E00023D5
:101018000493019B049A02990598FFF7DDFE0346A5
:10102800184607B05DF804FB2400002000B585B021
:101038000190019B03930D4B9B78002B01D1082352
:1010480010E0019B002B03D0039B5B69002B01D1AF
:10105800082307E0039B00221A7402210398FFF774
:10106800F8FE0346184605B05DF804FB240000208E
:1010780072B6034B1B680133014A136000BF704707
:1010880044010020054B1B68013B044A1360034BD5
:101098001B68002B00D162B600BF704744010020D6
:1010A80000B583B0019000F025F80346012B03D06A
:1010B8000449432000F0A2F8FFF7DAFF00BF03B0AD
:1010C8005DF804FBE853000000B583B003468DF8D3
:1010D800073000F00FF80346012B03D004495120D4
:1010E80000F08CF8FFF7CEFF00BF03B05DF804FBFB
:1010F800E853000084B0EFF305830193019BC3F329
:1011080008030393039B002B0DD1EFF31483009383
:10111800009B0293029B03F00103002B0CBF0123E9
:101128000023DBB200E00123184604B0704700003A
:101138001EF0040F1CBFEFF309800AE0EFF30880EC
:101148000549064A884201D8904202D88D464FF098
:101158000000034B184700000000042000E00320B3
:10116800A911000000BF00BFBFF34F8F054BDB681C
:1011780003F4E0620349044B1343CB60BFF34F8F82
:1011880000BFFDE700ED00E00400FA0500B583B0FC
:101198000190FFF7E9FF00BF03B05DF804FB000012
:1011A80000B587B00190019B0493124B9B6A03938F
:1011B800104BDB6A002305930AE00122059B02FA23
:1011C80003F31A46039B1340002B059B0133059339
:1011D800059B192BF1D9084B1B6803F00103002B61
:1011E80000D000BE0198FFF7D1FF00BF07B05DF83F
:1011F80004FB00BF00ED00E0F0ED00E000B585B0B5
:1012080003460091ADF80630BDF80630ADF8083059
:10121800009B039302AB1A46002144F20200FFF739
:101228002FF900BF05B05DF804FB10B487B001903A
:101238000091019B009A53E8004F104643E80001D3
:1012480091F0000FF7D1059404900391059B18467F
:1012580007B05DF8044B704700B583B0019000916A
:10126800019B002B03D108497720FFF7C7FF019B9B
:101278009B68009A9A4202D2009B013300E0002347
:10128800184603B05DF804FB4C54000084B001908C
:10129800019B1B681B680393019B1B685B68029397
:1012A800029A039B9A4203D3029A039BD31A06E03D
:1012B800019B9A68039BD21A029B13440133184678
:1012C80004B0704710B58AB0039002910192039858
:1012D80000F0B6F90990039B9A68039B1B685B684A
:1012E800D31A01330893039B5B681946039B1B6859
:1012F8005B68039AD26802FB03F30B440793019AD5
:10130800089B9A421DD8039BDB68019A02FB03F3F2
:101318001A460299079803F0D6FF039B1B685A6880
:10132800019B1A44039B9B689A4205D8039B1B6840
:101338005A68019B134400E00023039A1268536023
:101348002FE0039BDA68089B02FB03F30693069AD7
:101358000299079803F0B7FF019A089BD31A0593DF
:10136800039B5868029A069B13441946039BDB6843
:10137800059A02FB03F31A4603F0A5FF039B1B68BB
:10138800059A5A60099A019B9A420AD2039B1B68E4
:101398005A68039B1C6811460398FFF75DFF0346D4
:1013A80023600398FFF772FF0490039B1B689B68F8
:1013B800049A9A4203D9039B1B68049A9A6000BF57
:1013C8000AB010BD00B587B0039002910192039B4B
:1013D800002B04D11C494FF4B470FFF70FFF029B98
:1013E800002B04D1184940F26910FFF707FF019B51
:1013F8000593019B002B01D1002321E00020FFF77A
:101408004FFE039B1B7C002B07D1039B9B68019A13
:10141800934228BF1346019309E0039800F010F99E
:101428000490019A049B934228BF13460193019AA2
:1014380002990398FFF746FF0020FFF745FE019B3E
:10144800184607B05DF804FB4C54000000B58BB09B
:10145800039002910192039B1B681B680993039BED
:101468001B685B680893099A089B9A4203D8089AF4
:10147800099BD31A04E0039B9A68099BD31A01338A
:101488000793039B5B681946039BDB68099A02FB79
:1014980003F30B440693019A079B9A4219D8039BBE
:1014A800DB68019A02FB03F31A460699029803F0D7
:1014B8000AFF099A019B1A44039B9B689A4203D826
:1014C800099A019B134400E00023039A12681360F1
:1014D80020E0039BDA68079B02FB03F30593059A58
:1014E8000699029803F0EFFE019A079BD31A04931A
:1014F800029A059B13441846039B5968039BDB68B3
:10150800049A02FB03F31A4603F0DDFE039B1B68F3
:10151800049A1A6000BF0BB05DF804FB00B587B0F1
:10152800039002910192039B002B04D1164940F2CB
:10153800D510FFF763FE029B002B04D112494FF42C
:10154800EB70FFF75BFE019B0593019B002B01D11C
:10155800002315E00020FFF7A3FD0398FFF796FE90
:101568000490019A049B934228BF13460193019A61
:1015780002990398FFF76AFF0020FFF7A5FD019B7A
:10158800184607B05DF804FB4C54000000B583B062
:101598000190019B002B04D10A4940F2EF10FFF79C
:1015A8002DFE0020FFF77CFD019B1B680C2200210B
:1015B800184603F0B1FE0020FFF786FD00BF03B018
:1015C8005DF804FB4C54000000B585B00190019B08
:1015D800002B04D1094940F2FD10FFF70FFE00204F
:1015E800FFF75EFD0198FFF751FE03900020FFF71B
:1015F8006BFD039B184605B05DF804FB4C540000D6
:1016080000B585B00190019B002B04D10B4940F235
:101618000A20FFF7F3FD019B1B681B680393019BDE
:101628001B685B680293039A029B9A420CBF0123D2
:101638000023DBB2184605B05DF804FB4C540000EB
:1016480010B582B00190019B002B04D1074940F2EC
:101658001220FFF7D3FD019B9C680198FFF7B4FFA8
:101668000346E31A184602B010BD00BF4C540000F0
:1016780082B00190019B03F06043B3F1005F0CBF9F
:1016880001230023DBB2184602B0704700B587B0CB
:101698000390029113468DF8073000230593039BAE
:1016A8001B781A46114B9B5C002B09D0039B043313
:1016B8009DF807200299184602F0DEFF05900FE01A
:1016C800039B1B781A46094B9B5C002B08D1039B94
:1016D8000C339DF807200299184602F05BF9059033
:1016E800059B184607B05DF804FB00BF7001002099
:1016F80000B585B0019000238DF80F30019B1B7851
:101708001A46114B9B5C002B08D0019B04331846EA
:1017180003F064F803468DF80F300EE0019B1B7848
:101728001A46094B9B5C002B07D1019B0C331846CA
:1017380002F0B8F903468DF80F309DF80F301846BF
:1017480005B05DF804FB00BF7001002000B587B04C
:101758000390029113468DF8073000230593039BED
:101768001B781A46114B9B5C002B09D0039B043352
:101778009DF807200299184603F048F805900FE0F5
:10178800039B1B781A46094B9B5C002B08D1039BD3
:101798000C339DF807200299184602F0DBF90590F2
:1017A800059B184607B05DF804FB00BF70010020D8
:1017B80000B585B0019000238DF80F30019B1B7890
:1017C8001A46114B9B5C002B08D0019B043318462A
:1017D80003F042F903468DF80F300EE0019B1B78A9
:1017E8001A46094B9B5C002B07D1019B0C3318460A
:1017F80002F0BEFA03468DF80F309DF80F301846F8
:1018080005B05DF804FB00BF7001002000B583B08F
:101818000190019B1B781A460C4B9B5C002B05D052
:101828000B4940F25A20FFF7E9FC0BE0019B1B78BB
:101838001A46064B9B5C002B04D1019B0C331846BF
:1018480002F0A6FA00BF03B05DF804FB70010020A7
:10185800A854000000B583B00190019B1B781A467C
:101868000C4B9B5C002B05D0019B0433184603F0FE
:1018780033F90BE0019B1B781A46064B9B5C002B47
:1018880004D1019B0C33184602F0D9FA00BF03B00B
:101898005DF804FB7001002000B583B00190019B46
:1018A800002B03D106497220FFF7A8FC019B0022F8
:1018B8001A60BFF35F8F00BF03B05DF804FB00BF81
:1018C800E054000000B585B00190019B002B03D1C6
:1018D8000A498520FFF792FC01210198FFF7A5FC32
:1018E8000390BFF35F8F039B002B0CBF01230023E2
:1018F800DBB2184605B05DF804FB00BFE0540000F9
:1019080000B583B00190019B002B03D10A499220B6
:10191800FFF774FC019B1B68012B03D00649932039
:10192800FFF76CFCBFF35F8F019B00221A6000BFBA
:1019380003B05DF804FB00BFE054000000B583B0BD
:1019480001900B468DF80330019B5B691B68DB68CF
:10195800002B08D0019B5B691B68DB689DF803209E
:1019680011460198984700BF03B05DF804FB00B525
:1019780083B00190019B5B691B681B78002B0BD01F
:10198800019B5B691B681B69002B06D0019B5B6987
:101998001B681B69984700E000BF03B05DF804FBB3
:1019A80000B589B0039002910192039B5B691B68A3
:1019B8001B78002B27D1019BFF2B28BFFF23059302
:1019C800059B07930FE0039B012202991846FFF736
:1019D800BDFE0490049B002B10D1029B013302939F
:1019E800079B013B0793039B1846FFF7E1FE03465D
:1019F800002B04D0079B002BE5D100E000BF059A1F
:101A0800079BD31A0BE0039B5B691B685B681B6829
:101A18000693019A02990698FFF780FD0346184637
:101A280009B05DF804FB000000B58DB00390029189
:101A3800019200230B93039B5B691B681B78002BA7
:101A480015D1019BFF2B28BFFF230B93039B0B9AF8
:101A5800D2B202991846FFF719FE0590059B002B94
:101A680003D022496920FFF7C9FB0B9B3AE0039B8F
:101A78005B691B685B685B680A93039B5B691B680F
:101A88009B680993019A02990A98FFF79BFC0890B2
:101A9800039B1846FFF72CFE0346002B01D0089B3A
:101AA80020E0099B1968099B1B7A1A460A98FFF7D8
:101AB80035FD0790079B002B03D10C497820FFF7D1
:101AC8009DFB0398099B1B68079AD2B21946FFF73A
:101AD800DDFD0690069B002B03D004497A20FFF712
:101AE8008DFB089B18460DB05DF804FB14550000EB
:101AF80000B58BB001900091009B0993019B1B7866
:101B0800012B04D0022B36D0002B39D069E0099B79
:101B18005B691B685B681B680893019B5968019B9C
:101B28001B7A1A460898FFF74DFC0790019B1B7A11
:101B38001A46079B934204D203210998FFF7FEFE39
:101B48004FE001210998FFF7F9FE099B5B691B68C3
:101B58009B6806930998069B5968069B5B7A1A4608
:101B6800FFF7F4FD0590059B002B35D01F499B20FE
:101B7800FFF744FB30E002210998FFF7DFFE30E071
:101B8800099B5B691B685B685B680493099B5B69DD
:101B98001B689B68039300210998FFF7CFFE039BFE
:101BA8001968039B1B7A1A460498FFF7B7FC029042
:101BB800029B002B12D00998039B1B68029AD2B291
:101BC8001946FFF763FD0590059B002B08D00749D0
:101BD800B220FFF713FB03E000BF02E000BF00E004
:101BE80000BF00BF0BB05DF804FB00BF1455000038
:101BF80000B58FB0039002910192039B002B05D092
:101C0800029B002B02D0019B002B03D15449BF201B
:101C1800FFF7F4FA039B5B691B68002B01D085234F
:101C280099E0019B1B78002B0BD0019B5B68002B74
:101C380003D0019B9B68002B03D14949C920FFF7BA
:101C4800DDFA05AB20220299184603F03CFB039B02
:101C58000993019B1B78022B0CBF01230023DBB2E5
:101C68008DF831300398019B1B78002B01D03D4A39
:101C780000E0002205AB194600F01EFC0D900D9BFC
:101C8800002B01D00D9B66E0039B5B69019A1A60EB
:101C9800039B5B691B685B68002B0FD0039B5B6928
:101CA8001B685B685B681846FFF770FC039B5B6901
:101CB8001B685B681B681846FFF768FC039B5B6939
:101CC80008331846FFF7E8FD039B5B6904331846A1
:101CD800FFF7E2FD039B5B6903221A73059BB3F1CF
:101CE800FF3F08D1039B5B691A7B039B5B6922F06A
:101CF8000202D2B21A73069BB3F1FF3F0AD1039BCB
:101D08005B691A7B039B5B6922F00102D2B21A73EA
:101D1800002320E0039B5B691B681B78022B0BD018
:101D2800039B1846FFF772FD039B5B691B681B78D2
:101D3800002B01D100230EE00398039B5B691B680D
:101D48009B685968039B5B691B689B685B7A1A46AA
:101D5800FFF7FCFC034618460FB05DF804FB00BF14
:101D680014550000F91A000084B00190019B0393F8
:101D7800039B01221A7000BF04B0704710B586B0EB
:101D88000390029101920093019B19464FF00002C3
:101D98004FF000034FF00004D40344EA5144CB034E
:101DA80013F5FA7044F100014FF47A724FF0000312
:101DB80003F022FA03460C460593059B042B04D82E
:101DC800009B01221A70002312E00B4A002102989E
:101DD800FFF7CAF80490049B002B01D0049B07E08E
:101DE800029B1B68009A05991846FFF7EDF8034611
:101DF800184606B010BD00BF711D000000B58BB0BD
:101E08000390029101920093039B002B04D1524945
:101E18004FF4A670FFF7F2F9039B5B691B68002B70
:101E280001D1802393E0039B5B691B7B03F00203D2
:101E3800002B01D108238AE0019B002B01D100234C
:101E480085E00298FFF714FC034683F00103DBB238
:101E5800002B07D0039B5B691B681B78022B01D101
:101E6800102374E0039B5B6904331846FFF72AFDCF
:101E7800034683F00103DBB2002B01D0112366E097
:101E880000238DF814300C9BB3F1FF3F12D0039B55
:101E9800996905AB0C9A0398FFF770FF0790079BA9
:101EA800002B07D0039B5B6904331846FFF728FD16
:101EB800079B4CE0019B0993029B0893099A089998
:101EC8000398FFF7B1FD0690099A069BD31A099368
:101ED800089A069B13440893099B002B0BD0039880
:101EE800FFF745FD9DF81430DBB283F00103DBB248
:101EF800002BE3D100E000BF009B002B04D0019A27
:101F0800099BD21A009B1A609DF81430DBB283F04B
:101F18000103DBB2002B09D00C9BB3F1FF3F05D0C6
:101F2800039B9B691B681846FFF780F8039B5B6956
:101F380004331846FFF7E4FC099B002B06D09DF8F4
:101F48001430DBB2002B01D00D2300E0002318462B
:101F58000BB05DF804FB00BF1455000000B58BB052
:101F68000390029101920093039B002B04D14E49E8
:101F780040F2A310FFF742F9039B5B691B68002B33
:101F880001D180238CE0039B5B691B7B03F0010379
:101F9800002B01D1082383E0019B002B01D10023F2
:101FA8007EE0039B5B6908331846FFF78BFC03460A
:101FB80083F00103DBB2002B01D0112370E0002372
:101FC8008DF814300C9BB3F1FF3F12D0039BD969F5
:101FD80005AB0C9A0398FFF7D1FE0790079B002BDF
:101FE80007D0039B5B6908331846FFF789FC079BFA
:101FF80056E0019B0993029B0893099A0899039854
:10200800FFF7CEFC0690099A069BD31A0993089A03
:10201800069B13440893099B002B13D09DF814309A
:10202800DBB2002B0AD0039B5B691B681B78002B73
:102038000AD0039B1846FFF70DFC05E00398FFF74D
:1020480096FCDAE700BF00E000BF009B002B04D03D
:10205800019A099BD21A009B1A609DF81430DBB2D2
:1020680083F00103DBB2002B09D00C9BB3F1FF3FD7
:1020780005D0039BDB691B681846FEF7D7FF039B57
:102088005B6908331846FFF73BFC099B002B06D019
:102098009DF81430DBB2002B01D00D2300E00023A3
:1020A80018460BB05DF804FB1455000000B585B068
:1020B80001900091019B002B04D150494FF4FD7011
:1020C800FFF79CF8019B5B691B68002B01D18023FB
:1020D80090E0019B5B691B7B03F00203002B01D19D
:1020E800082387E0019B5B691B681B78002B01D1E3
:1020F80000237FE0019B5B6904331846FFF7E2FB8E
:10210800034683F00103DBB2002B01D0112371E0F9
:1021180000238DF80830009BB3F1FF3F12D0019BDC
:10212800996902AB009A0198FFF728FE0390039B78
:10213800002B07D0019B5B6904331846FFF7E0FBCF
:10214800039B57E0019B5B691B685B685B681846EB
:10215800FFF756FA0346002B0BD0019B1846FFF7F2
:10216800C7FA034683F00103DBB2002B01D0012339
:1021780000E000238DF80B309DF80B3003F00103CD
:102188008DF80B309DF80B30002B0BD10198FFF721
:10219800EEFB9DF80830DBB283F00103DBB2002BC5
:1021A800D0D100E000BF9DF80830DBB283F0010316
:1021B800DBB2002B09D0009BB3F1FF3F05D0019B98
:1021C8009B691B681846FEF731FF019B5B69043366
:1021D8001846FFF795FB9DF80B3083F00103DBB23F
:1021E800002B06D09DF80830DBB2002B01D00D2360
:1021F80000E00023184605B05DF804FB1455000004
:1022080000B583B000230193104B1B78002B02D03C
:102218008523019314E00D4B00229A600B4B00229A
:102228005A600A4B00221A61084B0022DA600848FB
:1022380000F0C6FA019000F0E9FA044B01221A7086
:10224800019B184603B05DF804FB00BF480100205D
:102258009D23000084B001900091019B1B680393AB
:1022680006E0039A009B9A420DD0039B1B680393D8
:10227800039B002BF5D1019B1A68009B1A60019BF8
:10228800009A1A6000E000BF04B0704784B0019063
:10229800019B1B680393039B002B03D0039B1A68C5
:1022A800019B1A60039B184604B0704700B583B0C1
:1022B8000190224B1B78002B03D12149E920FEF71E
:1022C8009DFF1E4B9B78DBB2002B12D0019B002B8D
:1022D80003D0019B5B68012098470020FEF7E0FED1
:1022E800164BDB680133154AD3600020FEF7ECFE7D
:1022F80017E00020FEF7D4FE019B002B03D00199C4
:102308001048FFF7A7FF0D4BDB68002B01D100F049
:1023180097FA0A4BDB680133084AD3600020FEF7BE
:10232800D3FE064BDB68002B04D1054940F20510AB
:10233800FEF764FF00BF03B05DF804FB480100200E
:10234800745500005801002000B585B003468DF88B
:1023580007309DF80730002B02D10C4B039301E0A6
:102368000B4B03930398FFF791FF0290029B002BFE
:1023780006D0029B5B689DF8072010469847F1E756
:1023880000BF00BF05B05DF804FB00BF500100208E
:102398005801002000B583B003468DF807309DF83A
:1023A8000730002B05D10A4B01225A700020FFF795
:1023B800CBFF9DF80730012B05D1054B01229A7000
:1023C8000120FFF7C1FF00BF03B05DF804FB00BFA9
:1023D8004801002000B585B001900D4B1B78002BFB
:1023E80001D085230FE0019B002B01D1094B0193FC
:1023F800019800F07BFE0390039B002B02D1044B55
:1024080001221A70039B184605B05DF804FB00BF53
:102418005C010020D055000000B589B00190009102
:10242800009B0793019B1B788DF80C30019B5B6820
:102438000493019B9B68DBB28DF81430019BDB6829
:102448000693074A079B52F823300649079A51F822
:10245800221003AA1046984700BF09B05DF804FB94
:10246800600100206801002000B589B0019000914A
:10247800009B0793019B1B788DF80C30019B5B68D0
:102488000493019B9B68DBB28DF81430019BDB68D9
:102498000693074A079B52F823300649079A51F8D2
:1024A800221003AA1046984700BF09B05DF804FB44
:1024B800600100206801002030B58FB003900291C0
:1024C8000192039B1B780C932C490C9B019A41F8B1
:1024D8002320029B1A692A490C9B41F823200C9B54
:1024E800012B07D1029B5B7F002B03D12549762066
:1024F800FEF784FE029B5B7F1946234A0C9B13441C
:102508000A461A70029B04AC1D460FCD0FC495E80D
:102518000F0084E80F000C9B089300230D93039B86
:102528001B781A46184B9B5C002B0DD0039B181D7B
:10253800019B002B01D0154A00E0002204AB19468C
:1025480002F034F80D9014E0039B1B781A460E4BEA
:102558009B5C002B0DD1039B03F10C00019B002B0E
:1025680001D00B4A00E0002204AB194601F060F9E3
:102578000D900D9B18460FB030BD00BF60010020C4
:1025880068010020D45500007001002021240000BB
:102598007124000082B003468DF807309DF807309B
:1025A80003F01F0205499DF907305B09012000FA75
:1025B80002F241F8232000BF02B0704700E100E0BA
:1025C80082B0034600918DF807309DF90730002B43
:1025D8000CDA009BDAB20C499DF8073003F00F03C0
:1025E800043B5201D2B20B441A7609E0009BDAB2DE
:1025F80006499DF907305201D2B20B4483F80023F3
:1026080000BF02B0704700BF00ED00E000E100E04D
:1026180082B00190019B1B0B5BB2184602B0704759
:1026280000B583B003460A468DF8073013468DF887
:1026380006309DF80630072B03D908496B20FEF7B2
:10264800DDFD9DF806209DF9073011461846FFF775
:10265800B7FF00BF03B05DF804FB00BF30560000B1
:1026680000B583B003468DF807309DF9073018464A
:10267800FFF790FF00BF03B05DF804FB82B003468C
:102688008DF807300F4A9DF90730002B00DA1F3309
:102698005B115BB252F823209DF90730594203F0D1
:1026A8001F0301F01F0158BF4B425BB222FA03F32C
:1026B80003F00103002B14BF01230023DBB21846EB
:1026C80002B0704700E100E082B001904FF0804214
:1026D800019BC2F8043300BF02B0704782B001907A
:1026E8004FF08042019BC2F8083300BF02B0704728
:1026F80082B003468DF807309DF8073003F1804318
:1027080001221A6000BF02B0704784B00346ADF8DA
:102718000630BDF8063003F1804300221A60BDF888
:10272800063003F180431B680393039B00BF04B08A
:10273800704782B00346ADF80630BDF8063003F1A5
:1027480080431B68002B14BF01230023DBB218460B
:1027580002B0704782B001904FF08042019BC2F8EE
:10276800183500BF02B0704700B583B006238DF856
:1027780007304FF08040FFF74BFF03461846FFF73E
:102788007DFF034683F00103DBB2002B13D04FF02B
:102798008040FFF73DFF03461A469DF8073019466B
:1027A8001046FFF73DFF4FF08040FFF731FF03462B
:1027B8001846FFF755FF00BF03B05DF804FB0000A3
:1027C80000B585B00190019B002B03D10D49A020D5
:1027D800FEF714FD002303930B4B1B79002B02D04B
:1027E8008523039308E0084A019B1360064B0122E6
:1027F8001A71054B00225A71039B184605B05DF803
:1028080004FB00BF5C5600007401002008B5094BAA
:102818001B79002B03D10849B920FEF7EFFCFFF71D
:10282800A3FF0120FFF796FF044B01221A7000BF97
:1028380008BD00BF740100205C5600007C01002028
:1028480008B50A4B1B79002B03D10949E620FEF78E
:10285800D5FC4FF48270FFF758FF0220FFF734FFD2
:102868000820FFF745FF00BF08BD00BF7401002026
:102878005C56000008B54FF48070FFF75AFF034616
:10288800002B14D04FF48070FFF73FFF0120FFF7B3
:1028980025FF114B5B7983F00103DBB2002B06D0D7
:1028A8000D4B01225A710C4B1B68002098474FF4BE
:1028B8008270FFF73EFF0346002B0AD04FF4827068
:1028C800FFF723FF0220FFF709FF034B1B680120D6
:1028D800984700BF08BD00BF7401002000B583B051
:1028E8000346ADF80630BDF80630184600F026F865
:1028F80003461B68012B0CBF01230023DBB21846DB
:1029080003B05DF804FB00B585B00346ADF80630AA
:10291800BDF80630184600F011F803461A460023A1
:102928001360BDF80630184600F008F803461B6827
:102938000393039B00BF05B05DF804FB82B0034618
:10294800ADF80630BDF8063003F1804303F5C04307
:10295800184602B07047000082B00190034BD3F8CC
:102968000423019B1340184602B0704700600040E2
:1029780082B00190054A019B03F5A27352F82330F7
:102988001B0A03F03F03184602B07047006000407E
:1029980082B00190064A019B03F5A27352F82330D6
:1029A8001B0C03F00303DBB2184602B0704700BFEC
:1029B8000060004000B583B00190019B1B682F2B7D
:1029C80004D90B494FF4F370FEF718FC019B1B6800
:1029D8001F2B02D84FF0A04306E0019B1B6803F0B1
:1029E8001F02019B1A60034B184603B05DF804FBF5
:1029F800E45600000003005000B585B001900B4676
:102A08008DF8033001AB1846FFF7D4FF0390019A05
:102A1800039B02F5E07253F82230019A23F4403107
:102A2800039B02F5E07243F82210019A039B02F51A
:102A3800E07253F822309DF8032012041146019ADF
:102A48001943039B02F5E07243F8221000BF05B05A
:102A58005DF804FB00B585B0019001AB1846FFF79F
:102A6800A9FF0390019A039B02F5E07253F8223004
:102A78001B0C03F00303DBB2184605B05DF804FB3A
:102A880082B00190019BD3F81035184602B0704708
:102A980000B589B0039002910192174A05AB92E8FC
:102AA800030083E80300039A029B1344022B04D912
:102AB800124940F21630FEF7A1FB039B079311E081
:102AC800079B9B0008AA134453F80C3C1846FFF7D1
:102AD800D7FF0246019B1A60019B04330193079BB1
:102AE80001330793039A029B1344079A9A42E7D348
:102AF80000BF09B05DF804FB10570000E456000061
:102B080084B001900091009B0393019BDB08029322
:102B1800019B03F0070301930122019B02FA03F3CF
:102B28000399029A0A4412781340184604B0704771
:102B380084B001900091009B0393019BDB080293F2
:102B4800019B03F007030193039A029B13441B782C
:102B58005AB20121019B01FA03F35BB2134359B244
:102B6800039A029B1344CAB21A7000BF04B070479C
:102B780082B00190044A019B1344303393F900302A
:102B8800184602B0704700BF8001002082B0019053
:102B9800034A019B52F82330184602B0704700BF21
:102BA8008001002000B599B00023179306AB0022DE
:102BB8001A605A604FF48073ADF8563001231493AD
:102BC8000023169321E0BDF856301846FFF786FE1D
:102BD8000346002B0ED01498FFF7BEFE0346002BC9
:102BE80008D0BDF856301846FFF78DFE179A149B8B
:102BF80013431793149B5B001493BDF856300433AA
:102C0800ADF85630169B01331693169B072BDAD96D
:102C18004FF4BE70FFF762FE0346002B0DD04FF451
:102C2800BE70FFF770FE179B43F00043179306AB87
:102C38001A4602210020FFF72BFF179BDBB2002B5F
:102C480029D0012314930023169321E0149A179B8B
:102C58001340002B16D01698FFF78AFE119016988D
:102C6800FFF796FE03468DF843301698FFF78EFF60
:102C78000F900F9B002B05D09DF843200F9B11460A
:102C880011989847149B5B001493169B0133169375
:102C9800169B072BDAD9179B002B80F2F0800023B4
:102CA8008DF84B3004AB00221A605A60002313934E
:102CB8000AE0139B9B0018AA13444FF0FF3243F815
:102CC800582C139B01331393139B012BF1D9002329
:102CD8008DF84B300023169378E06B4A169B13440B
:102CE800603393F900308DF83B309DF83B3023F08A
:102CF800C0030D93644A169B1344603393F9003064
:102D0800B3F1FF3F5FD002AB19460D98FFF7F8FE0D
:102D18000346002B57D09DF83B309B098DF8333084
:102D28000D98FFF725FF03461846FFF72FFF0B9076
:102D38000B9B002B03D19DF83330032B43D19DF817
:102D48003330032B04D104AB19460D98FFF7F0FE7E
:102D58000D98FFF77FFE03468DF82B3006AB19461A
:102D68000D98FFF7CDFE0990099B002B03D09DF825
:102D78002B30022B06D0099B002B24D19DF82B3039
:102D8800032B20D19DF83330032B13D19DF82B3022
:102D9800022B01D1032300E002238DF823309DF894
:102DA800233019460D98FFF727FE9DF84B30013365
:102DB8008DF84B300B9B002B05D09DF833200B9BD7
:102DC80011460D989847169B01331693169B032BB3
:102DD80083D99DF84B30002B4CD001238DF84A3015
:102DE8006B461A4602210020FFF752FE0023139378
:102DF80014E0139B9B0018AA134453F8602C139BF0
:102E08009B0018A90B4453F8483C9A4203D000236E
:102E18008DF84A3005E0139B01331393139B012B64
:102E2800E7D99DF84A30002B03D000238DF84B30AA
:102E380020E0002313931AE0139B9B0018AA134465
:102E480053F8602C139B9B0018A90B4443F8482C9B
:102E5800139B9B0018AA134453F8502C139B9B00F8
:102E680018A90B4443F8582C139B01331393139B55
:102E7800012BE1D99DF84B30002B7FF428AF00BF20
:102E880019B05DF804FB00BF8001002082B0034642
:102E98008DF807309DF8073003F01F0205499DF9AA
:102EA80007305B09012000FA02F241F8232000BF35
:102EB80002B0704700E100E082B0034600918DF84F
:102EC80007309DF90730002B0CDA009BDAB20C4969
:102ED8009DF8073003F00F03043B5201D2B20B44B4
:102EE8001A7609E0009BDAB206499DF907305201CB
:102EF800D2B20B4483F8002300BF02B0704700BF72
:102F080000ED00E000E100E082B00190019B1B0BA6
:102F18005BB2184602B0704700B583B003460A4654
:102F28008DF8073013468DF806309DF80630072BCC
:102F380003D908496B20FEF761F99DF806209DF931
:102F4800073011461846FFF7B7FF00BF03B05DF81A
:102F580004FB00BF7457000000B583B003468DF82A
:102F680007309DF907301846FFF790FF00BF03B000
:102F78005DF804FB82B003468DF807300F4A9DF9CF
:102F88000730002B00DA1F335B115BB252F82320A5
:102F98009DF90730594203F01F0301F01F0158BF84
:102FA8004B425BB222FA03F303F00103002B14BF78
:102FB80001230023DBB2184602B0704700E100E0AD
:102FC80084B00346ADF80630BDF8063003F18043FF
:102FD80000221A60BDF8063003F180431B68039392
:102FE800039B00BF04B0704782B00346ADF80630BB
:102FF800BDF8063003F180431B68002B14BF012382
:103008000023DBB2184602B0704700B585B003460E
:10301800ADF80630BDF806301846FFF7E5FF034661
:103028008DF80F309DF80F30002B04D0BDF8063016
:103038001846FFF7C5FF9DF80F30184605B05DF834
:1030480004FB4FF08043D3F804331846704782B02E
:1030580003468DF807309DF80730002B01D0012377
:1030680000E000234FF08042C2F8783500BF02B07C
:10307800704782B003468DF807309DF80730002B63
:1030880001D0012300E000234FF08042C2F88035D0
:1030980000BF02B0704700B583B006238DF8073033
:1030A8004FF08040FFF730FF03461846FFF762FFF6
:1030B800034683F00103DBB2002B13D04FF08040AE
:1030C800FFF722FF03461A469DF8073019461046B7
:1030D800FFF722FF4FF08040FFF716FF0346184620
:1030E800FFF73AFF00BF03B05DF804FB00B583B0FB
:1030F8000190019B002B03D111497020FEF77EF847
:10310800104B1B78002B01D0852315E0019B1B7801
:10311800C3F34003DBB21846FFF7ABFF019B1B78F4
:10312800C3F30003DBB21846FFF791FFFFF7B3FFC5
:10313800044B01221A700023184603B05DF804FB03
:10314800CC570000EC01002000B583B0FFF779FFF1
:103158000190019B03F00403002B12D04FF48470FC
:10316800FFF753FF0346002B0BD0464B1B68002B81
:1031780004D145494FF48A70FEF740F8414B1B686B
:103188009847019B03F02003002B13D04FF48A705B
:10319800FFF73BFF0346002B0CD03C4B1B68002B72
:1031A80004D1394940F21D10FEF728F8374B1B6847
:1031B80000209847019B03F04003002B13D04FF4E5
:1031C8008C70FFF722FF0346002B0CD02F4B1B6897
:1031D800002B04D12C494FF49270FEF70FF82B4BBB
:1031E8001B6801209847019B03F08003002B13D034
:1031F8004FF48E70FFF709FF0346002B0CD0244BC9
:103208001B68002B04D1204940F22D10FDF7F6FF72
:103218001F4B1B6800209847019B03F48073002B09
:1032280013D04FF49070FFF7F0FE0346002B0CD03C
:10323800174B1B68002B04D113494FF49A70FDF704
:10324800DDFF134B1B6801209847019B03F40073B3
:10325800002B13D04FF49270FFF7D7FE0346002BD4
:103268000CD00B4B1B68002B04D1074940F23B10D4
:10327800FDF7C4FF064B1B680220984700BF03B048
:103288005DF804FBF0010020CC570000F401002099
:10329800F801002008B5FFF757FFFFF7EBFA00BF6A
:1032A80008BD000008B5064B1B68002B03D1054973
:1032B8005120FDF7A3FF024B1B68984700BF08BDCC
:1032C800FC0100202858000082B00190019B044AAC
:1032D800934201D1034B00E00023184602B0704727
:1032E80000200040FC01002000B587B0019000914B
:1032F800019B002B03D118497720FDF77FFF019828
:10330800FFF7E2FF0490049B002B1ED000238DF8EA
:1033180017300020FDF7C4FE049B1B79002B03D057
:1033280001238DF8173005E0049B009A1A60049B6E
:1033380001221A710020FDF7C7FE9DF81730002BF7
:1033480003D011230393039B02E000230393039B01
:10335800184607B05DF804FB2858000082B0034601
:103368008DF807309DF8073003F01F0205499DF9D5
:1033780007305B09012000FA02F241F8232000BF60
:1033880002B0704700E100E082B0034600918DF87A
:1033980007309DF90730002B0CDA009BDAB20C4994
:1033A8009DF8073003F00F03043B5201D2B20B44DF
:1033B8001A7609E0009BDAB206499DF907305201F6
:1033C800D2B20B4483F8002300BF02B0704700BF9D
:1033D80000ED00E000E100E082B00190019B1B0BD2
:1033E8005BB2184602B0704700B583B003460A4680
:1033F8008DF8073013468DF806309DF80630072BF8
:1034080003D908496B20FDF7F9FE9DF806209DF9C0
:10341800073011461846FFF7B7FF00BF03B05DF845
:1034280004FB00BF8458000000B583B003468DF844
:1034380007309DF907301846FFF790FF00BF03B02B
:103448005DF804FB84B001900B46ADF80230BDF87E
:103458000230019A134400221A60BDF80230019A22
:1034680013441B680393039B00BF04B0704782B0EA
:1034780001900B46ADF80230BDF80230019A1344B2
:103488001B68002B14BF01230023DBB2184602B0CF
:10349800704782B001900091019B009AC3F8042301
:1034A80000BF02B0704782B001900091019BD3F831
:1034B8000423009B1340002B14BF01230023DBB21D
:1034C800184602B0704782B001900091019B009AA3
:1034D800C3F8082300BF02B0704784B00190019B75
:1034E800D3F880340393019B039AC3F88024039B89
:1034F800184604B0704782B00190019B0422C3F8BB
:10350800002500BF02B0704784B003900291019279
:10351800039B019AC3F81425039B029AC3F80C2550
:1035280000BF04B0704784B0039002910192039BDE
:10353800029AC3F80825039B019AC3F8102500BF17
:1035480004B0704782B00190019BD3F81835DBB204
:10355800184602B0704782B001900B468DF80330D0
:103568009DF80320019BC3F81C2500BF02B07047DB
:1035780082B001900B468DF803309DF80330019A14
:10358800134401221A6000BF02B0704782B0019054
:103598000B468DF8033013468DF802309DF8032052
:1035A8009DF802301343DBB21A46019BC3F86C2521
:1035B80000BF02B0704782B001900091019B009A51
:1035C800C3F8242500BF02B07047000000B583B0DF
:1035D8000190019B1B682F2B04D90B494FF4F37002
:1035E800FDF70CFE019B1B681F2B02D84FF0A04370
:1035F80006E0019B1B6803F01F02019B1A60034B46
:10360800184603B05DF804FBB058000000030050F2
:1036180000B585B00190084611461A4603468DF854
:1036280003300B468DF8023013468DF8013001AB9C
:103638001846FFF7CBFF03909DF803209DF8023052
:103648005B001A439DF801309B001A439DF818301F
:103658001B0242EA03019DF81C301B04019A19431E
:10366800039B02F5E07243F8221000BF05B05DF835
:1036780004FB00B585B00390002301930023009359
:103688000023012201210398FFF7C2FF00BF05B004
:103698005DF804FB00B585B003900B468DF80B3040
:1036A8009DF80B200023019300230093134600226A
:1036B80000210398FFF7ACFF00BF05B05DF804FBDD
:1036C80000B585B0019001AB1846FFF77FFF039066
:1036D800019B012202FA03F31946039800F004F84B
:1036E80000BF05B05DF804FB82B001900091019B1A
:1036F800009AC3F8082500BF02B0704700B583B030
:1037080001900091009B1B68B3F1FF3F09D0009B1B
:103718001B681846FFF7D4FF009B1B681846FFF785
:10372800A8FF009B5B68B3F1FF3F05D0009B5B6877
:1037380000211846FFF7AEFF019B1A68009B9B69A2
:1037480019461046FFF737FF019B1868009B597D03
:10375800009B1B7D1A46FFF719FF019B1868009B09
:103768001968009B5B681A46FFF7CEFE009B1B7D1D
:10377800012B22D1009B9B68B3F1FF3F05D0009B32
:103788009B6800211846FFF785FF009BDB68B3F1B3
:10379800FF3F09D0009BDB681846FFF791FF009BAD
:1037A800DB681846FFF765FF019B1868009BD9681E
:1037B800009B9B681A46FFF7B6FE00BF03B05DF892
:1037C80004FB000000B583B001900B468DF8033070
:1037D800019B1B684FF48E711846FFF733FE019B5F
:1037E8001B684FF4A2711846FFF72CFE019B1B685B
:1037F8000E491846FFF74DFE019B1B681846FFF758
:10380800EBFD03461A469DF8033019461046FFF7AC
:10381800EBFD019B1B681846FFF7DEFD03461846C3
:10382800FFF702FE00BF03B05DF804FB8000020052
:1038380000B587B0039002910192029B002B03D13F
:103848002D49AA20FDF7DAFC039B1B791A462C2385
:1038580003FB02F3294A1344059300230493059BB1
:1038680093F82A30002B03D008230493049B3EE0EE
:10387800039B1A68039B1B791946214B53F8213087
:1038880019461046FFF730FD0346002B03D01123DD
:103898000493049B2BE002990398FFF72FFF059BE5
:1038A800019A5A60029B1A69059B1A60059B5B681E
:1038B800002B05D0029B1B7F19460398FFF782FF58
:1038C800039B1B681846FFF716FE059B00229A61AA
:1038D800059B0022DA61059B002283F82920059BBD
:1038E80000225A61059B012283F82A20049B18466E
:1038F80007B05DF804FB00BFDC580000040200209C
:103908003859000000B585B0019000914FF48E71D0
:103918000198FFF797FD009B9A68009B1B6A134468
:103928001B788DF80F30009B1B6A5A1C009B1A628B
:103938009DF80F3019460198FFF70DFE00BF05B03E
:103948005DF804FB00B583B00190009116E0009B80
:1039580093F82830DBB2002B01D0002315E04FF498
:103968008E710198FFF783FD034683F00103DBB2F4
:10397800002BECD100990198FFF7C4FF009B1A6A4D
:10398800009B5B699A42EAD30123184603B05DF8AD
:1039980004FB000000B587B0039002910192039BDD
:1039A8001B791A462C2303FB02F33C4A1344049365
:1039B800049B93F82A30012B04D0394940F21510A2
:1039C800FDF71CFC029B002B04D135494FF48B708A
:1039D800FDF714FC019B002B04D1314940F217106C
:1039E800FDF70CFC039800F05DF80346002B03D0AC
:1039F80011230593059B4CE0049B019A5A61049B93
:103A0800029A9A60049B00221A62049B002283F89F
:103A1800282000230593039B1B684FF48E711846DA
:103A2800FFF710FD039B1B6808211846FFF7A0FD50
:103A3800039B1B6804991846FFF764FF049B5B68A7
:103A4800002B25D1039B1B6804991846FFF77AFFC2
:103A5800034683F00103DBB2002B02D00F2305934A
:103A680013E000BF039B1B684FF48E711846FFF7E5
:103A7800FEFC034683F00103DBB2002BF2D1039B6B
:103A88001B680C211846FFF773FD049B00225A613E
:103A9800059B184607B05DF804FB00BF0402002030
:103AA800DC58000082B00190019B1B791946074A37
:103AB8002C2303FB01F3134414331B68002B14BF9E
:103AC80001230023DBB2184602B07047040200202D
:103AD80000B583B00190019B1B684FF492711846A2
:103AE800FFF7B0FC019B1B684FF484711846FFF781
:103AF800A9FC019B1B6800211846FFF739FD00BF90
:103B080003B05DF804FB10B582B001900091009BF2
:103B18009B69002B08D14FF484710198FFF792FC40
:103B28000198FFF70FFD13E04FF484710198FFF738
:103B380089FC009BDA68009B5B6AD4180198FFF740
:103B480001FD03462370009B5B6A5A1C009B5A6266
:103B580002B010BD00B589B0039002910192039B99
:103B68001B791A462C2303FB02F37F4A134406935E
:103B7800039B1B7919467C4A2C2303FB01F313444E
:103B88002A331B78012B04D0784940F26910FDF7DD
:103B980035FB029B002B04D174494FF4B570FDF737
:103BA8002DFB019B002B04D1704940F26B10FDF7EF
:103BB80025FB00238DF81F30069B5B68002B06D081
:103BC800039B1B684FF401711846FFF77CFC069BAA
:103BD8009B69002B15D0069BDB69002B0ED0069B3A
:103BE8005B68002B06D0039B1B684FF401711846D5
:103BF800FFF74FFC11230593059BB0E001238DF8D7
:103C08001F309DF81F3083F00103DBB2002B0CD06E
:103C1800069B019A9A61069B029ADA60069B00222B
:103C28005A62069B0022DA6105E0069B029A1A6135
:103C3800069B019ADA61069B93F8293083F0010309
:103C4800DBB2002B09D09DF81F3083F00103DBB2F3
:103C5800002B02D00398FFF73BFF069B5B68002B05
:103C680073D1039B1B684FF4A2711846FFF7EAFB58
:103C7800039B1B684FF492711846FFF7F8FB034645
:103C88008DF81330039B1B684FF484711846FFF7B7
:103C9800EEFB03468DF81230039B1B684FF4A271AC
:103CA8001846FFF7E4FB03468DF811309DF81230F3
:103CB80083F00103DBB2002B0DD09DF8113083F0A7
:103CC8000103DBB2002B06D09DF8133083F001030B
:103CD800DBB2002BCCD19DF81330002B0FD19DF80F
:103CE8001130002B0BD1039B1B6806991846FFF770
:103CF8000AFF069B9A69069B5B6A9A42B8D8069B9C
:103D080000229A619DF81330002B03D003230593FA
:103D1800059B24E09DF81130002B03D00F23059359
:103D2800059B1CE0069B93F82930002B06D0039BCB
:103D38001B6800211846FFF71BFC0DE0039B1B685E
:103D480004211846FFF714FC06E0039B1B684FF498
:103D580001711846FFF79DFB00230593059B184644
:103D680009B05DF804FB00BF04020020DC58000025
:103D780000B583B00190019B1B684FF4847118460D
:103D8800FFF775FB0346184603B05DF804FB000017
:103D980000B583B00190019B1B7919460E4A2C236C
:103DA80003FB01F3134429331B7883F00103DBB2CF
:103DB800002B0DD00198FFF78BFE019B1B7919464C
:103DC800054A2C2303FB01F31344293301221A70FB
:103DD80000BF03B05DF804FB0402002000B589B001
:103DE80003900291019201238DF81030029B0693F3
:103DF800019B0593039B5B68039A116804AA10460C
:103E0800984700BF09B05DF804FB00B587B0019082
:103E1800009100238DF80830009B0493019B9B6858
:103E28000393019B00225A61019B5B68019A116808
:103E380002AA1046984700BF07B05DF804FB00B51A
:103E480083B00190019B1B684FF401711846FFF77E
:103E58003AFB019B1B6804211846FFF789FB00BF4A
:103E680003B05DF804FB00B589B0019000914FF4F0
:103E780000710198FFF717FB0346002B39D04FF468
:103E880092710198FFF7F3FA0346002B31D04FF4F3
:103E980092710198FFF7D6FA4FF401710198FFF774
:103EA80012FB009B93F8293083F00103DBB2002B4F
:103EB80003D004210198FFF75BFB02238DF808303B
:103EC8000198FFF70AFB03460593009B9B6904933F
:103ED800009BDB680393009B00229A61009B0022F1
:103EE800DA61009B5B68009A116802AA104698473D
:103EF80052E004210198FFF7D6FA0346002B4BD075
:103F08004FF484710198FFF7B2FA0346002B43D0AF
:103F180000990198FFF7F7FD009B9A69009B5B6A7F
:103F28009A4239D1009BDB69002B19D0009BDB68D2
:103F38000793009B5B6A0693009BDA69009B9A6172
:103F4800009B1A69009BDA60009B0022DA61009BE3
:103F580000225A62079A06990098FFF73FFF1BE074
:103F6800009B93F8293083F00103DBB2002B03D0C8
:103F780004210198FFF7FCFA4FF401710198FFF74B
:103F8800A2FA009B00229A61009B596A009BDB6899
:103F98001A460098FFF722FF4FF48E710198FFF739
:103FA80066FA0346002B22D0009B1A6A009B5B69C5
:103FB8009A420DD2009B93F82830DBB283F00103BC
:103FC800DBB2002B04D000990198FFF79BFC0EE0B0
:103FD8004FF48E710198FFF735FA009B5B69002B4F
:103FE80005D0009B5B6919460098FFF70EFF4FF458
:103FF800A2710198FFF73BFA0346002B1CD04FF43F
:10400800A2710198FFF71EFA009B93F82930002B44
:1040180003D000210198FFF7ABFA009B9B69002BA6
:104028000AD0009B00229A61009B596A009BDB68BA
:104038001A460098FFF7D2FE00BF09B05DF804FBEE
:1040480008B503490348FFF70EFF00BF08BD00BFCE
:10405800040200200020004082B003468DF807309B
:104068009DF8073003F01F0205499DF907305B09E9
:10407800012000FA02F241F8232000BF02B0704785
:1040880000E100E082B0034600918DF807309DF909
:104098000730002B0CDA009BDAB20C499DF8073088
:1040A80003F00F03043B5201D2B20B441A7609E025
:1040B800009BDAB206499DF907305201D2B20B448F
:1040C80083F8002300BF02B0704700BF00ED00E096
:1040D80000E100E082B00190019B03F06043B3F17E
:1040E800005F0CBF01230023DBB2184602B0704703
:1040F80082B00190019B1B0B5BB2184602B070475F
:1041080000B583B003460A468DF8073013468DF88C
:1041180006309DF80630072B03D908496B20FDF7B8
:104128006DF89DF806209DF9073011461846FFF7EF
:10413800A9FF00BF03B05DF804FB00BF3C590000B5
:1041480000B583B003468DF807309DF9073018464F
:10415800FFF782FF00BF03B05DF804FB84B0019055
:104168000B46ADF80230BDF80230019A1344002224
:104178001A60BDF80230019A13441B680393039B2D
:1041880000BF04B0704782B001900B46ADF8023012
:10419800BDF80230019A13441B68002B14BF012399
:1041A8000023DBB2184602B0704782B0019000913C
:1041B800019BD3F80022009B1A43019BC3F80022FD
:1041C80000BF02B0704782B001900091019BD3F804
:1041D8000022009BDB431A40019BC3F8002200BF6A
:1041E80002B0704782B001900091019B009AC3F819
:1041F800042300BF02B0704782B001900091019B78
:10420800009AC3F8082300BF02B0704784B0019039
:10421800019BD3F880340393019B039AC3F880244D
:10422800039B184604B0704782B00190019B082296
:10423800C3F8002500BF02B0704784B00390029114
:104248000192039B029AC3F80C25039B019AC3F8B9
:10425800142500BF04B0704784B003900291019206
:10426800039B029AC3F80825039B019AC3F81025FB
:1042780000BF04B0704782B001900B468DF8033040
:104288009DF80330019A134401221A6000BF02B05E
:10429800704782B001900B468DF8033013468DF8B5
:1042A80002309DF803209DF802301343DBB21A4612
:1042B800019BC3F86C2500BF02B0704782B0019023
:1042C8000091019B009AC3F8242500BF02B07047F3
:1042D80084B0039002910192029A039BC3F844258B
:1042E800039B019AC3F8482500BF04B0704782B009
:1042F8000190019BD3F84C35184602B0704784B042
:10430800039002910192029A039BC3F83425039B00
:10431800019AC3F8382500BF04B0704782B00190F5
:10432800019BD3F83C35184602B0704700B583B0FE
:104338000190019B1B682F2B04D90B494FF4F37094
:10434800FCF75CFF019B1B681F2B02D84FF0A043B2
:1043580006E0019B1B6803F01F02019B1A60034BD8
:10436800184603B05DF804FB6859000000030050CC
:1043780000B585B00190084611461A4603468DF8E7
:1043880003300B468DF8023013468DF8013001AB2F
:104398001846FFF7CBFF03909DF803209DF80230E5
:1043A8005B001A439DF801309B001A439DF81830B2
:1043B8001B0242EA03019DF81C301B04019A1943B1
:1043C800039B02F5E07243F8221000BF05B05DF8C8
:1043D80004FB00B585B003900023019300230093EC
:1043E8000023012201210398FFF7C2FF00BF05B097
:1043F8005DF804FB00B585B003900B468DF80B30D3
:104408009DF80B20002301930023009313460022FC
:1044180000210398FFF7ACFF00BF05B05DF804FB6F
:1044280000B585B0019001AB1846FFF77FFF0390F8
:10443800019B012202FA03F31946039800F004F8DD
:1044480000BF05B05DF804FB82B001900091019BAC
:10445800009AC3F8082500BF02B0704700B583B0C2
:1044680001900091009B1B68B3F1FF3F09D0009BAE
:104478001B681846FFF7D4FF009B1B681846FFF718
:10448800A8FF009B5B68B3F1FF3F05D0009B5B680A
:1044980000211846FFF7AEFF019B1A68009B9B6935
:1044A80019461046FFF70AFF019B1868009B597DC3
:1044B800009B1B7D1A46FFF7ECFE019B1868009BCA
:1044C8001968009B5B681A46FFF7B7FE009B1B7DC7
:1044D800012B22D1009B9B68B3F1FF3F05D0009BC5
:1044E8009B6800211846FFF785FF009BDB68B3F146
:1044F800FF3F09D0009BDB681846FFF791FF009B40
:10450800DB681846FFF765FF019B1868009BD968B0
:10451800009B9B681A46FFF79FFE00BF03B05DF83B
:1045280004FB000000B583B001900B468DF8033002
:10453800019B1B684FF488711846FFF70FFE019B1B
:104548001B684FF490711846FFF708FE019B1B6823
:104558004FF492711846FFF701FE019B1B684FF458
:10456800A2711846FFF7FAFD019B1B680E49184611
:10457800FFF738FE019B1B681846FFF7B9FD034695
:104588001A469DF8033019461046FFF7B9FD019BFE
:104598001B681846FFF7ACFD03461846FFF7D0FD29
:1045A80000BF03B05DF804FB1003020000B587B03C
:1045B800039002910192029B002B03D12B49CD203D
:1045C800FCF71CFE039B1B791A461346DB001344B9
:1045D8009B00274A1344059300230493059B93F8F3
:1045E8002030002B03D008230493049B3AE0039B5C
:1045F8001A68039B1B7919461E4B53F8213019463C
:104608001046FEF771FE0346002B03D011230493D6
:10461800049B27E002990398FFF720FF059B019A66
:104628005A60029B1A69059B1A60059B5B68002B00
:1046380005D0029B1B7F19460398FFF773FF039B66
:104648001B681846FFF7F0FD059B00229A61059B41
:104658000022DA61059B00225A61059B012283F83A
:104668002020049B184607B05DF804FB945900000D
:1046780030020020F059000000B589B00390029183
:104688000192039B1B791A461346DB0013449B00D7
:10469800504A13440693069B93F82030012B04D00C
:1046A8004D494FF49270FCF7A9FD029B002B04D1F1
:1046B800494940F22510FCF7A1FD019B002B04D1CC
:1046C80045494FF49370FCF799FD039B1B79002B28
:1046D80003D1019BB3F5803F0CD3039B1B79012BBE
:1046E80003D1019BB3F5803F04D33B4940F2271027
:1046F800FCF784FD0298FFF7EDFC034683F0010305
:10470800DBB2002B03D010230793079B5EE00398CE
:1047180000F064F80346002B03D011230793079B8E
:1047280054E0069B019A5A61069B029A9A600023FC
:104738000793039B1B684FF490711846FFF70EFD13
:10474800039B1B684FF4AC711846FFF707FD039BEA
:104758001868069B9968069B5B691A46FFF7B8FDBF
:10476800039B1B6808211846FFF785FD069B5B68BD
:10477800002B2AD1039B1B684FF490711846FFF752
:1047880002FD03468DF81730039B1B684FF4AC718C
:104798001846FFF7F8FC03468DF816309DF81730D9
:1047A80083F00103DBB2002B06D09DF8163083F0AE
:1047B8000103DBB2002BDDD19DF81630002B01D0B0
:1047C8000F230793069B00225A61079B184609B0DE
:1047D8005DF804FB300200209459000082B001907B
:1047E800019B1B791946084A0B46DB000B449B00CA
:1047F800134414331B68002B14BF01230023DBB2BE
:10480800184602B0704700BF3002002000B589B0DA
:10481800039002910192039B1B791A461346DB0011
:1048280013449B008A4A13440593039B1B7919463A
:10483800874A0B46DB000B449B00134420331B784C
:10484800012B04D083494FF4B770FCF7D7FC029BC7
:10485800002B04D17F4940F26F10FCF7CFFC019B7D
:10486800002B04D17B494FF4B870FCF7C7FC039BBD
:104878001B79002B03D1019BB3F5803F0CD3039B1D
:104888001B79012B03D1019BB3F5803F04D37149F8
:1048980040F27110FCF7B2FC0298FFF71BFC0346CC
:1048A80083F00103DBB2002B03D010230793079B8F
:1048B800CAE000238DF81B30059B5B68002B06D0EF
:1048C800039B1B684FF404711846FFF795FC059B82
:1048D8009B69002B15D0059BDB69002B0ED0059B2F
:1048E8005B68002B06D0039B1B684FF404711846C5
:1048F800FFF778FC11230793079BA5E001238DF8A8
:104908001B309DF81B3083F00103DBB2002B09D06C
:10491800059B019A9A61059B029ADA60059B002221
:10492800DA6105E0059B029A1A61059B019ADA6132
:1049380000230793039B1B684FF488711846FFF701
:104948000DFC039B1B684FF4A2711846FFF706FC89
:10495800039B1B68019A02991846FFF7D0FC9DF843
:104968001B3083F00103DBB2002B06D0039B1B68CE
:1049780000211846FFF77FFC05E0039B1B682021F8
:104988001846FFF712FC039B1B791946304A0B4661
:10499800DB000B449B00134404331B68002B4BD1F2
:1049A800039B1B684FF488711846FFF7ECFB03461E
:1049B8008DF81330039B1B684FF4A2711846FFF75C
:1049C800E2FB03468DF81230039B1B684FF492718B
:1049D8001846FFF7D8FB03468DF811309DF81330C1
:1049E80083F00103DBB2002B0DD09DF8123083F069
:1049F8000103DBB2002B06D09DF8113083F00103D0
:104A0800DBB2002BCCD1039B1B791946104A0B460D
:104A1800DB000B449B001344183300221A609DF8F6
:104A28001130002B01D0032307939DF81230002B7F
:104A380009D00F23079306E0039B1B684FF404710A
:104A48001846FFF7CFFB079B184609B05DF804FB33
:104A5800300200209459000000B583B00190019BFA
:104A68001B684FF488711846FFF78DFB03461846FC
:104A780003B05DF804FB00B589B003900291019280
:104A880001238DF81030029B0693019B0593039B2D
:104A98005B68039A116804AA1046984700BF09B0DA
:104AA8005DF804FB00B587B00190009100238DF8F4
:104AB8000830009B0493019B9B680393019B002291
:104AC8005A61019B5B68019A116802AA10469847CF
:104AD80000BF07B05DF804FB00B585B00190019BED
:104AE8001B791A461346DB0013449B000B4A1344F8
:104AF8000393039BDB69002B05D0019B1B682021D6
:104B08001846FFF760FB019B1B6804211846FFF756
:104B1800B2FB00BF05B05DF804FB00BF3002002007
:104B280000B589B0019000914FF492710198FFF798
:104B38002AFB0346002B22D04FF492710198FFF70D
:104B48000DFB02238DF808300198FFF75FFB034641
:104B580005930198FFF7E2FB03460493009BDB688B
:104B68000393009B00229A61009B0022DA61009B5C
:104B78005B68009A116802AA104698473BE04FF418
:104B880088710198FFF7FFFA0346002B33D04FF4E2
:104B980088710198FFF7E2FA0198FFF7BFFB0790C9
:104BA800009B9B69079A9A4225D1009BDB69002BE1
:104BB80017D0009BDB68069320210198FFF703FBC1
:104BC800009BDA69009B9A61009B1A69009BDA6076
:104BD800009B0022DA61069A07990098FFF74BFFBD
:104BE80009E0009B00229A61009BDB681A4607993E
:104BF8000098FFF740FF4FF4A2710198FFF7C3FA3E
:104C08000346002B18D04FF4A2710198FFF7A6FABB
:104C1800009B9B69002B0FD0009B00229A61009B90
:104C28000022DA610198FFF779FB0146009BDB68F7
:104C38001A460098FFF71FFF4FF490710198FFF78D
:104C4800A2FA0346002B10D04FF490710198FFF799
:104C580085FA009B5B69002B07D00198FFF747FB9B
:104C6800034619460098FFF71DFF00BF09B05DF81D
:104C780004FB000008B503490348FFF751FF00BFD4
:104C880008BD00BF300200200020004008B50349DD
:104C98000348FFF745FF00BF08BD00BF54020020CE
:104CA8000080024020BF40BF20BF00BF7047000007
:104CB80000B58BB0FDF7A4FA0990099B0893089BEF
:104CC800002B04D0494A5E210898FBF7CBFB002053
:104CD800FDF780FB0990099B0793079B002B04D0E5
:104CE800424A60210798FBF7BDFB0020FDF7DEFA7A
:104CF800FCF706F90990099B0693069B002B04D044
:104D08003A4A64210698FBF7ADFB394A39493A48D3
:104D1800FCF76EFF0990099B0593059B002B04D0B7
:104D2800324A67210598FBF79DFB344A34493548D8
:104D3800FCF75EFF0990099B0493049B002B04D0A9
:104D48002A4A6A210498FBF78DFB0DF10F010A230B
:104D58000093002301222848FDF700F9099019E083
:104D68000DF10F0100230093002301222548FDF7D0
:104D780045F80DF10F010A230093002301221E4874
:104D8800FDF7ECF80990099B002B03D000211D4882
:104D9800FDF78CF9099B002BE2D00DF10F010A23D6
:104DA8000093002301221748FDF7D8F8099019E06D
:104DB8000DF10F0100230093002301220E48FDF797
:104DC8001DF80DF10F010A230093002301220D485D
:104DD800FDF7C4F80990099B002B03D00021064871
:104DE800FDF764F9099B002BE2D0AEE7D85A000022
:104DF800605A0000F8590000905A0000745A0000E8
:104E0800185A0000B85A0000BFF34F8F054BDB68F3
:104E180003F4E0620349044B1343CB60BFF34F8FA5
:104E280000BFFDE700ED00E00400FA05024B034A6D
:104E38001A6000BF704700BF000000200090D00338
:104E480008B500F025F90346002B0ED04FF080433B
:104E58000022C3F80C214FF080430022C3F8102130
:104E68004FF080430022C3F8382500F035F9034697
:104E7800002B76D04FF080537C4AD3F80434C2F824
:104E880020354FF08053794AD3F80834C2F82435D6
:104E98004FF08053754AD3F80C34C2F828354FF0D8
:104EA8008053724AD3F81034C2F82C354FF080532F
:104EB8006E4AD3F81434C2F830354FF080536B4A39
:104EC800D3F81834C2F834354FF08053674AD3F812
:104ED8001C34C2F840354FF08053644AD3F820346C
:104EE800C2F844354FF08053604AD3F82434C2F8EE
:104EF80048354FF080535D4AD3F82834C2F84C3512
:104F08004FF08053594AD3F82C34C2F850354FF03B
:104F18008053564AD3F83034C2F854354FF0805392
:104F2800524AD3F83434C2F860354FF080534F4AB0
:104F3800D3F83834C2F864354FF080534B4AD3F86D
:104F48003C34C2F868354FF08053484AD3F84034AF
:104F5800C2F86C354FF08053444AD3F84434C2F851
:104F6800703500F0DDF80346002B02D0404B414A73
:104F78001A6000F0E7F80346002B03D03E4BFB22F3
:104F8800C3F8182500F0F0F80346002B0AD03B4B75
:104F98001B6823F00F023A4B1B6803F00F033749D5
:104FA80013430B6000F0F2F80346002B03D0354B97
:104FB8004FF400721A6000F0FBF80346002B0DD086
:104FC8004FF08043D3F8003403F00103002B05D0E1
:104FD8004FF080436FF00102C3F800242A4BD3F846
:104FE8008830294A43F47003C2F88830BFF34F8FE2
:104FF800BFF36F8F4FF01023D3F80032002B05DB7F
:105008004FF01023D3F80432002B2BDA1F4B012268
:10501800C3F8042500BF1D4BD3F80034002BFAD089
:105028004FF010231222C3F8002200BF174BD3F809
:105038000034002BFAD04FF010231222C3F80422B8
:1050480000BF124BD3F80034002BFAD00F4B0022CC
:10505800C3F8042500BF0D4BD3F80034002BFAD059
:10506800FFF7D2FEFFF7E2FE00BF08BD00C0004018
:105078008C5600404881030000F00040E40E0040D8
:10508800580200104096024000ED00E000E00140A8
:105098000F4B1B68082B17D10E4B1B68002B01D137
:1050A800012312E00B4B1B68012B01D101230CE0FB
:1050B800084B1B68022B01D1012306E0054B1B6836
:1050C800032B01D1012300E001231846704700BFDC
:1050D80030010010340100100F4B1B68082B17D14A
:1050E8000E4B1B68002B01D1012312E00B4B1B68F0
:1050F800012B01D101230CE0084B1B68022B01D1C5
:10510800012306E0054B1B68032B01D1012300E0B6
:1051180001231846704700BF300100103401001009
:10512800064B1B68082B05D1054B1B68002B01D1CA
:10513800012300E000231846704700BF300100102B
:1051480034010010064B1B68082B05D1054B1B6862
:10515800002B01D1012300E000231846704700BF4F
:105168003001001034010010064B1B68082B05D1D4
:10517800054B1B68002B01D1012300E000231846D2
:10518800704700BF3001001034010010064B1B6847
:10519800082B05D1054B1B68002B01D1012300E02A
:1051A80000231846704700BF30010010340100107A
:1051B8000F4B1B68082B17D10E4B1B68002B01D116
:1051C800012312E00B4B1B68012B01D101230CE0DA
:1051D800084B1B68022B01D1012306E0054B1B6815
:1051E800032B01D1012300E001231846704700BFBB
:1051F800300100103401001053EA020C61D02DE98F
:10520800F04BB3FA83F51E0007BFB2FA82F502FA33
:1052180005F403FA05F41646C5F120051EBF22FA67
:1052280005F73C43203556EA044C4FEA144418BFAE
:105238000134A3464FF00009C846904271EB030CB5
:1052480039D3094207BFB0FA80F700FA07F6B1FA76
:1052580081F701FA07F6C7F120071EBF20FA07FCFD
:1052680046EA0C062037B6FBFBFC7F1B103F07F015
:105278001F04C4F120060CFA04F42CFA06F644BF05
:1052880034460026202FA4BF2646002454EA060CE4
:1052980008BF012418EB040849EB0609A4FB027CAB
:1052A800C01B06FB02CC04FB03CC71EB0C01904243
:1052B80071EB030CC5D20B46024649464046BDE891
:1052C800F08BB2FBF3F2844640EA010313F0030FBC
:1052D80018D18446202A0BD32DE9F007B1E8F80746
:1052E800A0E8F807A2F12002202AF7D2BDE8F007CB
:1052F800042A07D351F8043B40F8043BA2F1040206
:10530800042AF7D2002A05D011F8013B00F8013B26
:10531800013AF9D1604670478446002A2DD010F032
:10532800030F04D000F8011B013A26D0F7E7C9B2F1
:1053380041EA012141EA0141202A12D3A2F12002C7
:105348002DE9F0030B460C460D460E460F468846DF
:105358008946A0E8FA03203AFBD2BDE8F0032032E0
:105368000BD0042A05D340F8041B043A05D0042ABC
:0E537800F9D200F8011B013AFBD160467047E4
:105388007C040020780200200002000001000000D8
:10539800010000008C0600208804002000020000A4
:1053A80001000000010000009C0800209806002071
:1053B800000200000100000001000000AC0A00200B
:1053C800A808002000020000010000000100000001
:1053D80000000000000000000338FDD870470000FE
:1053E8002F55736572732F6D616E75656C2F6E52D4
:1053F800464465736172726F6C6C6F2F6E524635DE
:105408005F53444B5F31352E332E305F353961633E
:105418003334352F636F6D706F6E656E74732F6CD8
:1054280069627261726965732F7574696C2F617036
:10543800705F7574696C5F706C6174666F726D2EE5
:10544800630000002F55736572732F6D616E75656B
:105458006C2F6E52464465736172726F6C6C6F2F5D
:105468006E5246355F53444B5F31352E332E305FD5
:10547800353961633334352F636F6D706F6E656EC8
:1054880074732F6C69627261726965732F717565C7
:1054980075652F6E72665F71756575652E630000A0
:1054A8002E2E2F2E2E2F2E2E2F2E2E2F2E2E2F69D4
:1054B8006E746567726174696F6E2F6E7266782F8D
:1054C8006C65676163792F6E72665F6472765F756B
:1054D8006172742E680000002E2E2F2E2E2F2E2E75
:1054E8002F2E2E2F2E2E2F636F6D706F6E656E749C
:1054F800732F6C69627261726965732F6D7574655B
:10550800782F6E72665F6D74782E68002F557365FC
:1055180072732F6D616E75656C2F6E52464465739C
:105528006172726F6C6C6F2F6E5246355F53444BCD
:105538005F31352E332E305F353961633334352F83
:10554800636F6D706F6E656E74732F6C69627261D4
:10555800726965732F73657269616C2F6E72665F0D
:1055680073657269616C2E63000000002F557365C6
:1055780072732F6D616E75656C2F6E52464465733C
:105588006172726F6C6C6F2F6E5246355F53444B6D
:105598005F31352E332E305F353961633334352F23
:1055A800696E746567726174696F6E2F6E72667862
:1055B8002F6C65676163792F6E72665F6472765FC0
:1055C800636C6F636B2E6300000000002F557365DA
:1055D80072732F6D616E75656C2F6E5246446573DC
:1055E8006172726F6C6C6F2F6E5246355F53444B0D
:1055F8005F31352E332E305F353961633334352FC3
:10560800696E746567726174696F6E2F6E72667801
:105618002F6C65676163792F6E72665F6472765F5F
:10562800756172742E6300002E2E2F2E2E2F2E2EB3
:105638002F2E2E2F2E2E2F696E7465677261746956
:105648006F6E2F6E7266782F6E7266785F676C75F4
:10565800652E68002F55736572732F6D616E7565C1
:105668006C2F6E52464465736172726F6C6C6F2F4B
:105678006E5246355F53444B5F31352E332E305FC3
:10568800353961633334352F6D6F64756C65732FED
:105698006E7266782F647269766572732F7372639F
:1056A8002F6E7266785F636C6F636B2E6300000009
:1056B8002E2E2F2E2E2F2E2E2F2E2E2F2E2E2F69C2
:1056C8006E746567726174696F6E2F6E7266782F7B
:1056D8006E7266785F676C75652E68002E2E2F2EA9
:1056E8002E2F2E2E2F2E2E2F2E2E2F6D6F64756C93
:1056F80065732F6E7266782F68616C2F6E72665FA5
:105708006770696F2E6800000000005000030050A9
:105718002F55736572732F6D616E75656C2F6E52A0
:10572800464465736172726F6C6C6F2F6E524635AA
:105738005F53444B5F31352E332E305F353961630B
:105748003334352F6D6F64756C65732F6E726678A0
:105758002F647269766572732F7372632F6E726627
:10576800785F6770696F74652E6300002E2E2F2E88
:105778002E2F2E2E2F2E2E2F2E2E2F696E7465670C
:10578800726174696F6E2F6E7266782F6E726678AA
:105798005F676C75652E68002E2E2F2E2E2F2E2EED
:1057A8002F2E2E2F2E2E2F6D6F64756C65732F6E16
:1057B8007266782F68616C2F6E72665F706F77659E
:1057C800722E68002F55736572732F6D616E756543
:1057D8006C2F6E52464465736172726F6C6C6F2FDA
:1057E8006E5246355F53444B5F31352E332E305F52
:1057F800353961633334352F6D6F64756C65732F7C
:105808006E7266782F647269766572732F7372632D
:105818002F6E7266785F706F7765722E6300000076
:105828002F55736572732F6D616E75656C2F6E528F
:10583800464465736172726F6C6C6F2F6E52463599
:105848005F53444B5F31352E332E305F35396163FA
:105858003334352F6D6F64756C65732F6E7266788F
:105868002F647269766572732F7372632F70727307
:105878002F6E7266785F7072732E63002E2E2F2E35
:105888002E2F2E2E2F2E2E2F2E2E2F696E746567FB
:10589800726174696F6E2F6E7266782F6E72667899
:1058A8005F676C75652E68002E2E2F2E2E2F2E2EDC
:1058B8002F2E2E2F2E2E2F6D6F64756C65732F6E05
:1058C8007266782F68616C2F6E72665F6770696F99
:1058D8002E6800002F55736572732F6D616E7565A4
:1058E8006C2F6E52464465736172726F6C6C6F2FC9
:1058F8006E5246355F53444B5F31352E332E305F41
:10590800353961633334352F6D6F64756C65732F6A
:105918006E7266782F647269766572732F7372631C
:105928002F6E7266785F756172742E6300000000D6
:10593800494000002E2E2F2E2E2F2E2E2F2E2E2FAA
:105948002E2E2F696E746567726174696F6E2F6E83
:105958007266782F6E7266785F676C75652E680060
:105968002E2E2F2E2E2F2E2E2F2E2E2F2E2E2F6D0B
:105978006F64756C65732F6E7266782F68616C2F13
:105988006E72665F6770696F2E6800002F557365C9
:1059980072732F6D616E75656C2F6E524644657318
:1059A8006172726F6C6C6F2F6E5246355F53444B49
:1059B8005F31352E332E305F353961633334352FFF
:1059C8006D6F64756C65732F6E7266782F6472697B
:1059D800766572732F7372632F6E7266785F756166
:1059E8007274652E630000007D4C0000954C000029
:1059F8000600000008000000070000000500000085
:105A0800000000000000000000E0D70106000000D0
:105A1800220000002100000007000000050000002F
:105A2800000000000000000000E0D70106000000B0
:105A3800885300009C530000B0530000C45300007A
:105A4800B80A0020BC0A002001010000C00A00209A
:105A5800C40A00200101000002000000385A0000BA
:105A6800485A000000000000AD4C00000200000091
:105A7800405A0000545A000000000000AD4C0000DD
:105A8800C80A0020E80A00200000000000200040AA
:105A9800000000000020004000000000080B00206B
:105AA8008C5A0000885A0000180B0020380B002080
:105AB800010000000080024001000000000000001A
:105AC80000000000580B0020B45A0000B05A000033
:105AD8002F55736572732F6D616E75656C2F6E52DD
